:020000040000FA
:10000000052800340034FF3F2F280820102007283F
:1000100083161F3085008601831285018601080042
:1000200093019401950196019701980199019A0114
:100030009B019001910192010F30A10008308E00C8
:100040009C019D019E019F01A0018C0183168430BB
:10005000810083126030810020308B0009000B1971
:10006000342820308B0009000B117E200E081F3928
:100070000A3A031943210E081F39123A0319BD2108
:100080000E081F390C3A031929210E081F39143A9A
:100090000319A9210E083F390B3A031905210E084F
:1000A0003F39133A031915210E083F390D3A031948
:1000B0000D210E083F39153A03191F210E083F394B
:1000C0002B3A031909210E083F39333A03191A2133
:1000D0000E083F392D3A031911210E083F39353AE0
:1000E000031924210E080139013A031979202A2223
:1000F00009008E110E120F30A1000800120A0A3AF0
:1001000003198428920A080092018B20A520B620AA
:10011000CD20DB2008009C0D05181C14051C1C10AC
:100120001C080339013A0319962008000E189F286D
:100130000E088F000E148E110E128E1208000F087A
:100140008E008E100E118E1208009D0D85181D1444
:10015000851C1D101D080339013A0319B020080041
:100160008E140E110E18C7288E1208009E0D051948
:100170001E14051D1E101E080339013A0319C12063
:1001800008008E100E150E18C7288E1208008E1A41
:10019000CB288E1608008E1208009F0D85191F149B
:1001A000851D1F101F080339013A0319D8200800C4
:1001B0008E150E120800A00D051A2014051E201021
:1001C00020080339013A0319E62008000E168E11A3
:1001D00008001308990014089A0015089B000800ED
:1001E000190893001A0894001B08950008001608C7
:1001F000990017089A0018089B0008001908960033
:100200001A0897001B0898000800E9208121F020B7
:100210000800E9209821F0200800F7208121FE2025
:100220000800F7209821FE200800E920FD219B010D
:10023000F0200800E92014229B01F0200800F7209C
:10024000FD219B01FE200800F72014229B01FE20C7
:100250000800100AC33A03192F29900A08009001D8
:10026000220A023A03193729A20A402108003D2137
:10027000A201E9205D21F02008000F30A100080054
:100280000C30A1000800110AC33A03194929910A48
:1002900008009101230A023A03195129A30A5A219D
:1002A00008005721A301F7205D21FE2008000F3030
:1002B000A10008000330A10008001B0A0F390A3A08
:1002C000031964299B0A08001B0E0F39013E9B008D
:1002D0009B0E063A03196D2908009B011A0A0F3973
:1002E0000A3A031975299A0A08001A0E0F39013EB5
:1002F0009A009A0E063A03197E2908009A0181296C
:100300000800190A0A3A03198F29190A1A3A031917
:100310009229190A243A03199529990A08001030DC
:10032000990008002030990008000030990008006A
:100330009B011A0A0F390A3A0319A0299A0A0800E0
:100340001A0E0F39013E9A009A0E063A03199A01C5
:100350000800100AC33A0319AF29900A0800900157
:10036000220A023A0319B729A20A402108003D21B6
:10037000A201E920D121F0200800110AC33A031993
:10038000C329910A08009101230A023A0319CB29D3
:10039000A30A5A2108005721A301F720D121FE20EA
:1003A00008001B030F390F3A0319D8299B030800D3
:1003B0001B0E0F398D000D030F3990389B009B0EDB
:1003C0009F3A0319E429080059309B001A030F399A
:1003D0000F3A0319ED299A0308001A0E0F398D0000
:1003E0000D030F3990389A009A0E9F3A0319F92994
:1003F000080059309A00FD2908001903FF3A031933
:100400000B2A19031F3A03190E2A19030F3A03196D
:10041000112A990308002330990008001930990027
:1004200008000930990008001A030F390F3A031920
:100430001B2A9A0308001A0E0F398D000D030F397D
:1004400090389A009A0E9F3A0319272A08005930CB
:100450009A0008000C08093A03198C010C08003AAC
:100460000319722A0C08013A0319862A0C08023A69
:1004700003199A2A0C08033A0319AE2A0C08043A05
:100480000319C22A0C08053A0319D62A0C08063AA1
:100490000319EA2A0C08073A03195E2A21080F39C2
:1004A0008D000C0E8D040E080539053A03190F2B2B
:1004B0000E080339033A0319142B192B66220E1860
:1004C000042B1608003A03196C22042B160E0F3960
:1004D0008D000C0E8D040800170E0F398D000C0EC8
:1004E0008D0408007A220E18FE2A1308003A031918
:1004F0008022FE2A14080F398D000C0E8D0408008E
:1005000015080F398D000C0E8D0408008E220E1870
:10051000FE2A1308003A03199422FE2A140E0F39FA
:100520008D000C0E8D040800150E0F398D000C0E79
:100530008D040800A2220E18FE2A1308003A03199F
:10054000A822FE2A13080F398D000C0E8D04080016
:1005500014080F398D000C0E8D040800B6220E18F9
:10056000FE2A1308003A0319BC22FE2A130E0F3983
:100570008D000C0E8D040800140E0F398D000C0E2A
:100580008D040800CA220E18042B1608003A03191D
:10059000D022042B17080F398D000C0E8D04080093
:1005A00018080F398D000C0E8D040800DE220E187D
:1005B000042B1608003A0319E422042B170E0F39F6
:1005C0008D000C0E8D040800180E0F398D000C0ED6
:1005D0008D040800F2220E18042B1608003A0319A5
:1005E000F822042B16080F398D000C0E8D0408001C
:1005F00017080F398D000C0E8D0408000E08053900
:10060000053A03190A2B192B0E080339033A03196B
:100610000A2B192B0D080F3886008C0A08000D08CC
:10062000FC3986008C0A08000D08F33986008C0A14
:1006300008000D0886008C0A0800FF3FFF3FFF3FBF
:10064000FF3FFF3FFF3FFF3FFF3FFF3FFF3FFF3FBA
:10065000FF3FFF3FFF3FFF3FFF3FFF3FFF3FFF3FAA
:10066000FF3FFF3FFF3FFF3FFF3FFF3FFF3FFF3F9A
:10067000FF3FFF3FFF3FFF3FFF3FFF3FFF3FFF3F8A
:10068000FF3FFF3FFF3FFF3FFF3FFF3FFF3FFF3F7A
:10069000FF3FFF3FFF3FFF3FFF3FFF3FFF3FFF3F6A
:1006A000FF3FFF3FFF3FFF3FFF3FFF3FFF3FFF3F5A
:1006B000FF3FFF3FFF3FFF3FFF3FFF3FFF3FFF3F4A
:1006C000FF3FFF3FFF3FFF3FFF3FFF3FFF3FFF3F3A
:1006D000FF3FFF3FFF3FFF3FFF3FFF3FFF3FFF3F2A
:1006E000FF3FFF3FFF3FFF3FFF3FFF3FFF3FFF3F1A
:1006F000FF3FFF3FFF3FFF3FFF3FFF3FFF3FFF3F0A
:10070000FF3FFF3FFF3FFF3FFF3FFF3FFF3FFF3FF9
:10071000FF3FFF3FFF3FFF3FFF3FFF3FFF3FFF3FE9
:10072000FF3FFF3FFF3FFF3FFF3FFF3FFF3FFF3FD9
:10073000FF3FFF3FFF3FFF3FFF3FFF3FFF3FFF3FC9
:10074000FF3FFF3FFF3FFF3FFF3FFF3FFF3FFF3FB9
:10075000FF3FFF3FFF3FFF3FFF3FFF3FFF3FFF3FA9
:10076000FF3FFF3FFF3FFF3FFF3FFF3FFF3FFF3F99
:10077000FF3FFF3FFF3FFF3FFF3FFF3FFF3FFF3F89
:10078000FF3FFF3FFF3FFF3FFF3FFF3FFF3FFF3F79
:10079000FF3FFF3FFF3FFF3FFF3FFF3FFF3FFF3F69
:1007A000FF3FFF3FFF3FFF3FFF3FFF3FFF3FFF3F59
:1007B000FF3FFF3FFF3FFF3FFF3FFF3FFF3FFF3F49
:1007C000FF3FFF3FFF3FFF3FFF3FFF3FFF3FFF3F39
:1007D000FF3FFF3FFF3FFF3FFF3FFF3FFF3FFF3F29
:1007E000FF3FFF3FFF3FFF3FFF3FFF3FFF3FFF3F19
:1007F000FF3FFF3FFF3FFF3FFF3FFF3FFF3FFF3F09
:02400E00FF3F72
:10420000FF00FF00FF00FF00FF00FF00FF00FF00B6
:10421000FF00FF00FF00FF00FF00FF00FF00FF00A6
:10422000FF00FF00FF00FF00FF00FF00FF00FF0096
:10423000FF00FF00FF00FF00FF00FF00FF00FF0086
:10424000FF00FF00FF00FF00FF00FF00FF00FF0076
:10425000FF00FF00FF00FF00FF00FF00FF00FF0066
:10426000FF00FF00FF00FF00FF00FF00FF00FF0056
:10427000FF00FF00FF00FF00FF00FF00FF00FF0046
:08400000FF3FFF3FFF3FFF3FC0
:00000001FF
