:020000040000FA
:020000000528D1
:040002000034003492
:08000800302808201020072811
:1000100083161F3085008601831285018601080042
:1000200093019401950196019701980199019A0114
:100030009B019001910192010230A100A2000830C1
:100040008E009C019D019E019F01A0018C018316E1
:1000500084308100831220308B00B0308100090091
:100060000B19352820308B000900B03081000B11AE
:1000700082200E081F390A3A03192D210E081F3954
:10008000123A0319AD210E081F390C3A0319472102
:100090000E081F39143A0319C1210E083F390B3AD3
:1000A000031911210E083F39133A031923210E08B1
:1000B0003F390D3A031909210E083F39153A031942
:1000C00019210E083F392B3A031915210E083F3923
:1000D000333A031928210E083F392D3A03190D210F
:1000E0000E083F39353A03191E210E080139013A2D
:1000F00003197C202E2209008E110E120F30A2004F
:10010000A1000800120A0A3A03198828920A080076
:1001100092018F20A920BA20D120DF2008009C0D59
:1001200005181C14051C1C101C080339013A03197E
:100130009A2008000E18A3280E088F000E148E11A6
:100140000E128E1208000F088E008E100E118E12E5
:1001500008009D0D85181D14851C1D101D080339F0
:10016000013A0319B42008008E140E110E18CB2882
:100170008E1208009E0D05191E14051D1E101E0866
:100180000339013A0319C52008008E100E150E1808
:10019000CB288E1208008E1ACF288E1608008E12D9
:1001A00008009F0D85191F14851D1F101F08033996
:1001B000013A0319DC2008008E150E120800A00D6C
:1001C000051A2014051E201020080339013A0319CE
:1001D000EA2008000E168E11080013089900140872
:1001E0009A0015089B000800190893001A0894004B
:1001F0001B08950008001608990017089A001808AF
:100200009B000800190896001A0897001B08980020
:100210000800ED208521F4200800ED209C21F42029
:100220000800FB20852102210800FB209C210221DF
:100230000800ED2001229B01F4200800ED20182287
:100240009B01F4200800FB2001229B0102210800F1
:10025000FB2018229B0102210800100AC33A03194F
:100260003329900A08009001230A023A03193B2916
:10027000A30A442108004121A301ED206121F420BB
:1002800008000230A10008000F30A1000800110A88
:10029000C33A03194D29910A08009101240A023A30
:1002A00003195529A40A5E2108005B21A401FB2043
:1002B0006121022108000230A20008000F30A200D4
:1002C00008001B0A0F390A3A031968299B0A08001B
:1002D0001B0E0F39013E9B009B0E063A0319712934
:1002E00008009B011A0A0F390A3A031979299A0A58
:1002F00008001A0E0F39013E9A009A0E063A0319A9
:10030000822908009A0185290800190A0A3A031966
:100310009329190A1A3A03199629190A243A031932
:100320009929990A08001030990008002030990096
:1003300008000030990008009B011A0A0F390A3A98
:100340000319A4299A0A08001A0E0F39013E9A00CF
:100350009A0E063A03199A010800100AC33A0319C3
:10036000B329900A08009001230A023A0319BB2915
:10037000A30A442108004121A301ED20D521F42046
:100380000800110AC33A0319C729910A080091010C
:10039000240A023A0319CF29A40A5E2108005B212E
:1003A000A401FB20D521022108001B030F390F3ABD
:1003B0000319DC299B0308001B0E0F398D000D0368
:1003C0000F3990389B009B0E9F3A0319E8290800CB
:1003D00059309B001A030F390F3A0319F1299A0378
:1003E00008001A0E0F398D000D030F3990389A004E
:1003F0009A0E9F3A0319FD29080059309A00012AE4
:1004000008001903FF3A03190F2A19031F3A0319A9
:10041000122A19030F3A0319152A990308002330E9
:100420009900080019309900080009309900080067
:100430001A030F390F3A03191F2A9A0308001A0EDC
:100440000F398D000D030F3990389A009A0E9F3A9C
:1004500003192B2A080059309A0008000C080A3AA0
:1004600003198C010C08003A0319842A0C08013A7C
:100470000319982A0C08023A0319AC2A0C08033A0B
:100480000319C02A0C08043A0319D42A0C08053AA7
:100490000319E82A0C08063A0319FC2A0C08073A43
:1004A0000319702A0C08083A03195A2A0C08093A49
:1004B0000319652A21080F398D000C0E8D040E08D2
:1004C0000539053A0319212B2B2B22080F398D00F2
:1004D0000C0E8D040E080339033A0319262B2B2B1F
:1004E00078220E18162B1608003A03197E22162BB6
:1004F000160E0F398D000C0E8D040800170E0F39E3
:100500008D000C0E8D0408008C220E18102B130881
:10051000003A03199222102B14080F398D000C0E8B
:100520008D04080015080F398D000C0E8D0408008D
:10053000A0220E18102B1308003A0319A622102B24
:10054000140E0F398D000C0E8D040800150E0F3996
:100550008D000C0E8D040800B4220E18102B130809
:10056000003A0319BA22102B13080F398D000C0E14
:100570008D04080014080F398D000C0E8D0408003E
:10058000C8220E18102B1308003A0319CE22102B84
:10059000130E0F398D000C0E8D040800140E0F3948
:1005A0008D000C0E8D040800DC220E18162B160888
:1005B000003A0319E222162B17080F398D000C0E92
:1005C0008D04080018080F398D000C0E8D040800EA
:1005D000F0220E18162B1608003A0319F622162BD5
:1005E000170E0F398D000C0E8D040800180E0F39F0
:1005F0008D000C0E8D04080004230E18162B16080F
:10060000003A03190A23162B16080F398D000C0E19
:100610008D04080017080F398D000C0E8D0408009A
:100620000E080539053A03191C2B2B2B0E0803392C
:10063000033A03191C2B2B2B0D080F3886008C0A4C
:1006400008000D088F3986008C0A08000D089F39B4
:0E06500086008C0A08000D0886008C0A08003F
:02400E00F93F78
:00000001FF
